:10000000A7C20000DDC20000DBC20000D9C20000B0
:10001000D7C20000D5C20000D3C20000D1C2000088
:10002000CFC20000CDC200000C9478130C94A91725
:100030000C947727C5C20000C3C20000C1C20000F3
:10004000BFC20000BDC20000BBC20000B9C20000B8
:10005000B7C200000C945F14B3C20000B1C200002C
:10006000AFC20000ADC20000ABC20000A9C20000D8
:10007000A7C20000A5C20000A3C20000A1C20000E8
:100080009FC200009DC200009BC2000099C20000F8
:1000900097C2000095C2000093C2000091C2000008
:1000A0008FC200008DC200008BC200000010002033
:1000B0000011012100120222001303230014042462
:1000C0000015052500160626001707270018082822
:1000D00000190929001A0A2A001B0B2B001C0C2CE2
:1000E000001D0D2D00403050004131510042325270
:1000F00000433353004434540045355500463656CA
:10010000004737570048385800493959004A3A5A89
:10011000004B3B5B004C3C5C004D3D5D00706080E3
:100120000071618100726282007363830074648471
:100130000075658500766686007767870078688831
:1001400000796989007A6A8A007B6B8B007C6C8CF1
:1001500000A090B000AA9ABA00A191B100A292B2F8
:1001600000A393B300A494B400A595B500A696B6D9
:1001700000A797B700A898B800A999B900AB9BBB96
:1001800000AC9CBC00AD9DBD007F6F8F007D6D8D70
:10019000007E6E8E004E3E5E00AE9EBE00AF9FBFE4
:1001A000001F0F2F001E0E2E004F3F5F167C1E00FB
:1001B0001F0020002100220023002400250026002B
:1001C00027002D002E002A002B0014001A00080022
:1001D000150017001C0018000C00120013002F005F
:1001E00030002800390004001600070009000A004A
:1001F0000B000D000E000F00330034003200000031
:10020000E1001D001B000600190005001100100090
:10021000360037000000E60052002152E000E30003
:10022000E200640000002C00000000000000380024
:100230004C00500051004F00007C3A003B003C0055
:100240003D003E003F0040004100420043004400AA
:1002500045007100010001780078057806780100FA
:100260000100010001006C006D006E006F00730062
:10027000010041784078447843784C784B78467850
:100280004578487847784A784978000001000100AD
:100290000100B20001000100137001000100010023
:1002A00000007D00A8000100010001000100010024
:1002B0000000010000000000000001000100AC008F
:1002C000AE00AB00000101010101010101010202C8
:1002D00002020202020202030303030303030304F4
:1002E00004040404040405050505050606060606BF
:1002F000070707070708080808090909090A0A0A79
:100300000B0B0B0C0C0C0D0D0D0E0E0E0F0F0F101A
:1003100010111111121213131414151516161717A4
:10032000181819191A1A1B1B1C1D1D1E1E1F202010
:10033000212222232424252626272829292A2B2C5A
:100340002D2D2E2F30313232333435363738393A7D
:100350003B3C3D3E3F404142434445464748494A75
:100360004C4D4E4F50515354555658595A5B5D5E43
:100370005F616264656668696B6C6D6F70727375DE
:1003800077787A7B7D7E8082838587888A8C8E8F42
:1003900091939596989A9C9EA0A2A3A5A7A9ABAD70
:1003A000AFB1B3B5B7BABCBEC0C2C4C6C9CBCDCF5E
:1003B000D1D4D6D8DBDDDFE2E4E7E9EBEEF0F3F50C
:1003C000F8FAFDFF05010902A10185020901A1005A
:1003D00005091901290815002501950875018102F3
:1003E0000501093009311581257F950275088106BF
:1003F00009381581257F950175088106050C0A3895
:10040000021581257F950175088106C0C005010987
:1004100080A101850319012AB700150126B70095AF
:100420000175108100C0050C0901A10185041901A5
:100430002AA002150126A002950175108100C005B1
:10044000010906A1018506050719E029E715002520
:10045000019508750181020507190029EF1500258E
:100460000195F075018102050819012905950575A9
:10047000019102950175039101C005010906A101D1
:10048000050719E029E71500250195087501810286
:100490009501750881010507190029FF150026FF40
:1004A0000095067508810005081901290515002524
:1004B00001950575019102950175039101C009022D
:1004C0003B00020100A0FA09040000010301010041
:1004D00009211101000122440007058103080001E0
:1004E000090401000103000000092111010001229B
:1004F000B60007058203200001120100020000007F
:1005000008504B2311020001020001260342004D56
:100510000036003000480053005200470042005FA0
:1005200000490053004F0020005200650076003261
:1005300000000016034B005000520065007000756B
:100540000062006C006900630000000403090400FD
:1005500011241FBECFEFDAE0DEBFCDBF04B603FE2D
:1005600018C080916C0590916D05A0916E05B091B9
:100570006F058730904BA740B04B59F410926C0533
:1005800010926D0510926E0510926F05E0E0F8E391
:10059000099525E0A0E9B2E001C01D92AC36B20792
:1005A000E1F712E0A0E0B1E0E6EFFCE502C0059063
:1005B0000D92A039B107D9F70E949E270C94F62D11
:1005C0001FCD90916405937071F0809365056093E1
:1005D0006605453B08F044EB409367058091630551
:1005E000816080936305089590916405937061F034
:1005F00081110BC094609093640510921F0180914B
:10060000630581608093630508958C3210F09C6AC5
:10061000F2CF880F880F982BEECF482F209132050C
:100620009091F90457E0291302C080E0089530E06A
:10063000529FF001539FF00D1124E650FB4F818132
:10064000681306C08081481303C085818111EECFF5
:100650002F5F3F4F2770E7CFE8EDF0E080818E7F7E
:1006600080831092E2001092DA001092E100A0EE76
:10067000B0E08C9181608C9380818F77808319BCEE
:10068000A7EDB0E08C918E7F8C9380818F7E8083EC
:100690001092E40408952091E4003091E50095E67D
:1006A000A9012091EC00822F817020FF06C080916B
:1006B000E80080FF06C080E008952091E80022FD58
:1006C0001AC08091EF04882389F0853089F08091E9
:1006D000EB0085FD0FC02091E4003091E50042174A
:1006E0005307F9F29150E1F684E0089582E008950D
:1006F00083E0089581E008958091F10487FF13C09D
:100700008091E80082FF06C08091E8008B7780939B
:10071000E80004C08091EF048111F2CF0895809128
:10072000EF048823D9F38091E80080FFF8CF80910F
:10073000E8008E77ECCF982F9093E900242F762F46
:1007400050E0891731F07091EC002091ED0050914C
:10075000F00021FD07C09F5F973071F78093E9009B
:1007600081E008953091EB003E7F3093EB003091B3
:10077000ED003D7F3093ED003091EB003160309320
:10078000EB007093EC002093ED005093F00020916B
:10079000EE0027FDE0CF80E00895B0E0A0E0E3EDBB
:1007A000F3E00C94952CC8EDD0E088818F7E88838F
:1007B000E7EDF0E080818160808384E082BF81E0AA
:1007C0008093E40488818E7F888302EE10E0F80134
:1007D00010821092DA0081EEC82ED12CF601108220
:1007E00088818F77888388818068888388818F7DDE
:1007F000888319BC1092EF041092F0041092EE045A
:100800001092ED0490EEE92EF12CF70180818B7FA0
:10081000808388818160888342E060E080E08BDFB4
:10082000F60180818E7F8083F801808181608083E2
:10083000808188608083F70180818E7F80838881BA
:1008400080618883CDB7DEB7E8E00C94B12CFC0161
:100850008091F7049091F80486179707A0F061152E
:10086000710529F49091E8009E779093E80090E05C
:100870006115710551F4911108C08091E80082FF63
:1008800034C080E00895BC01F2CF8091EF0488234A
:10089000C1F18530C1F18091E80083FD30C08091C5
:1008A000E80082FDEACF8091E80080FFE1CF8091EF
:1008B000F3002091F200382F6115710519F02830EE
:1008C000310558F091E02830310509F090E0209191
:1008D000E8002E772093E800CBCF81918093F10040
:1008E000615071092F5F3F4FE7CF8091EF0488235C
:1008F00041F0853041F08091E80083FFBECF81E078
:10090000089582E0089583E008952FB7F8946091E8
:10091000E0047091E1048091E2049091E3042FBF20
:10092000089580911901089590911A019130D1F4A0
:100930009091DD0497FF16C0E82FE695E695E695C1
:10094000EE31E0F4F0E0E656FD4F282F277081E00D
:1009500090E001C0880F2A95EAF78095928189235B
:1009600082830895E4E9F2E09191891303C0DF01E5
:1009700011971C9292E0EA39F907B1F70895909126
:100980001A019130C1F49091DD0497FF14C0E82F53
:10099000E695E695E695EE31F8F4F0E0E656FD4F83
:1009A000877021E030E001C0220F8A95EAF782814A
:1009B000822B82830895A4E9B2E0EFEF90E02D91BD
:1009C000821751F0EF3F19F4211101C0E92F9F5F09
:1009D0009630A9F7EF3F09F408950E2E000CFF0B97
:1009E000EE56FD4FE6CFA3E0B0E0E9EFF4E00C9463
:1009F0009B2C2091DB043091DC0428173907B1F0DF
:100A00009093DC048093DB04E091D904F091DA0444
:100A1000309761F00084F185E02D309739F024E0C3
:100A200029839B838A83CE01019609952396E2E070
:100A30000C94B72CA3E0B0E0E0E2F5E00C949B2C22
:100A40002091D7043091D80428173907B1F090933A
:100A5000D8048093D704E091D904F091DA04309758
:100A600061F00084F185E02D309739F023E029838F
:100A70009B838A83CE01019609952396E2E00C942C
:100A8000B72CE091D904F091DA04309739F0019055
:100A9000F081E02D309711F00995089580E00895D8
:100AA0008091CC0480FD16C081FD16C082FD16C069
:100AB0008091CB048823A1F0883280F428E0829FC3
:100AC000C001112468E270E00E94C22C862F672BBF
:100AD00039F0089582E0089584E0089588E008954B
:100AE00081E008958091CC0480FD14C081FD14C084
:100AF00082FD16C08091CA04882381F08E3180F473
:100B000020E5829FC00111246EE170E00E94C22C9A
:100B1000862F089584E1089588E2089588E0089575
:100B200080E50895282F35EB2303C001112497FF9A
:100B300004C080589109892F089580589F4FFBCF9A
:100B4000E4E6F5E0248130E1231B08F420E024836F
:100B5000809163058160809363050895E4E6F5E084
:100B6000248130E1230F08F42FEF24838091630563
:100B70008160809363050895E4E6F5E0438120E118
:100B8000421B08F440E08181628190E01ACDE4E6E6
:100B9000F5E0438120E1420F08F44FEF818162814B
:100BA00090E00FCDE4E6F5E0628120E1621B08F4FD
:100BB00060E08181438190E004CDE4E6F5E062816C
:100BC00020E1620F08F46FEF8181438190E0F9CC5E
:100BD000E4E6F5E08181438162818850990BF1CC94
:100BE000E4E6F5E0818190E0438162810896E9CCFA
:100BF0008091640586958695815009F48BE2F4CC4A
:100C000080916405869586958F5F8C3208F081E02F
:100C1000EBCCE4E6F5E0808191E0892780831092B7
:100C20001F018091630581608093630508959EE0B4
:100C3000899F802D1124980F973408F096E4089529
:100C4000EF92FF920F939701201B31092F3F31053F
:100C500019F010F02FEF30E02095382F320F08F404
:100C60003FEF832F0F91FF90EF900895EF92FF9247
:100C70000F939701201B31092F3F310519F010F018
:100C80002FEF30E0322F3095482F430F08F44FEF0D
:100C9000842F620F0F91FF90EF900895EF92FF92D3
:100CA0000F93972F093438F4B701601B71096F3F18
:100CB000710519F010F06FEF70E0485F5F4F413140
:100CC000510540F0A901485F5F4F4131510510F0D7
:100CD0006FEF70E06095482F460F08F44FEF842FB8
:100CE00037FF02C02D5F3F4F3595279535952795E6
:100CF00060916505620F792F0F91FF90EF90089535
:100D0000EF92FF920F931F930E0D1F2D111DF901EE
:100D100037FF03C0F195E195F10924E0EE0FFF1FC5
:100D20002A95E1F7EF3FF10519F014F0EFEFF0E04D
:100D30009A0157FF03C031952195310994E0220FA4
:100D4000331F9A95E1F72E173F070CF4F901E00FD6
:100D5000F11FEF3FF10519F010F0EFEFF0E0E09533
:100D6000282F3E2F230F08F42FEF822F1F910F9172
:100D7000FF90EF900895EF92FF920F93970195E007
:100D8000099F200D311D11242F3F310519F010F05E
:100D90002FEF30E02095382F320F08F43FEF832FEC
:100DA0000F91FF90EF9008950F931F9310E0F801BB
:100DB000EE0FFF1FE354FE4F9081905797FD9195E2
:100DC000000F111FF801E254FE4F00810052110B79
:100DD0002003F001219FF00D112408E310E0091B0E
:100DE000110997FD139540039001419F300D112487
:100DF000E20FF31F9F01220F331F2E0F3F1F37FFFC
:100E000002C021583F4F220F232F221F330B620FA6
:100E10001F910F9108950F931F93522F10E0F80127
:100E2000EE0FFF1FE254FE4FA081A052BB0B9D01AD
:100E30005203F001539FF00D1124000F111FD80130
:100E4000A354BE4F0C910057110B40039001419FDA
:100E5000300D11242E0F3F1F37FF02C0215C3F4F82
:100E600096E0359527959A95E1F7620F1F910F91BE
:100E700008950F931F93522F10E0F801EE0FFF1FFC
:100E8000E254FE4FA081A052BB0B9D015203F00122
:100E9000539FF00D1124000F111FD801A354BE4F12
:100EA0000C910057110B40039001419F300D11240C
:100EB0002E0F3F1F37FF02C021583F4F220F232F15
:100EC000221F330B620F1F910F910895EF920F9322
:100ED000972F23E0029FB0011124759567956E0D41
:100EE000792F0F91EF900895322F50E0FA01EE0F15
:100EF000FF1FE254FE4F9081905297FD9195440F51
:100F0000551FFA01E354FE4F2081231B330B290F99
:100F1000311D97FD3A95620F0895E42FF0E0EE0F32
:100F2000FF1FE254FE4F6081621B0895E42FF0E042
:100F3000EE0FFF1FE354FE4F6081621B0895622F86
:100F400008950C94451308950C9467130895FC01BB
:100F50009B01009729F480E077FF2BC080E808957B
:100F6000AC0197FF04C044275527481B590BB90112
:100F7000640F751F37FD10C0241B350BC901A5E098
:100F8000880F991FAA95E1F70E94C22C80E2861B68
:100F9000F7FF0FC081950895CB0165E0880F991F79
:100FA0006A95E1F7BA01621B730B0E94C22C80E6BE
:100FB000EECF0895EF920F93CF93DF93D72FC82FE3
:100FC000C9010E19BA01C3DF602F681B7D2F8C2F5A
:100FD000DF91CF910F91EF9008950F93CF93DF930F
:100FE000D72FC82FC901BA01B2DF682F600F7D2F3C
:100FF0008C2FDF91CF910F910895E82F86FDE0951A
:101000002E2F2F7086FD2F5FE695E695E695E6700C
:10101000F0E0E159FE4F9181929F902D212D1124F6
:1010200092959F702295207F922B2081920F87FDB1
:10103000919580E8890F089540910E0150910F011C
:1010400025E038E0429FC001439F900D529F900DD4
:101050001124875E994C90930F0180930E01890FA4
:101060000895AC018230910508F408959FEF413E48
:101070008EE1580740F49A0195E0369527959A95A8
:10108000E1F798E0920F61E0E62FE90FFF27FF1FDD
:101090009F0135952795822F229FF001239FF00D08
:1010A000F00D11244E175F0738F49FEF920F96173B
:1010B00058F78FEF860F08952F3FE9F361E0620F35
:1010C000F6CF0F93CF93DF93D72FC82F47FD4195CE
:1010D00088E390E0841B910947FD9395889FB001B8
:1010E000899F700D700D1124229FC001239F900DC8
:1010F000900D1124860F971FB4DF982F990F890F39
:10110000682F600F7D2F8C2FDF91CF910F91089565
:1011100030E020E0869F080E211D969F200D311D96
:101120001124290F311DC9010895282F269F020E71
:1011300020E0211D1124822F08951F93CF93DF9368
:10114000C62F172FD82F60E4842F8095EEDF682FED
:101150006C0F712F8D2FDF91CF911F910895CF9339
:10116000DF93D62FC72F682F842F8095DEDF6D2F5A
:101170007C2FDF91CF9108951F93CF93DF93C62FDC
:10118000172FD82FE42FF0E0EE0FFF1FE354FE4F90
:101190008081821B87FD819568E1C7DF682F6C0F16
:1011A000712F8D2FDF91CF911F9108950F931F9372
:1011B000CF93DF93D62F072F182FC42F822F1DDF39
:1011C000EC2FF0E0EE0FFF1FE354FE4F908190589C
:1011D000890F87FD81956CE0880FA7DF682F6D0F61
:1011E000702F812FDF91CF911F910F9108951F9341
:1011F000CF93DF93C62F172FD82F822F8695FDDE32
:10120000805887FD81956CE0880F8FDF682F6C0F09
:10121000712F8D2FDF91CF911F910895EF920F9332
:101220001F93CF93DF93162FD72FC82FC9010E1905
:101230000C0FBA018CDE6C2F081B802F76DF612F1C
:101240007D2FDF91CF911F910F91EF900895EF9235
:101250000F931F93CF93DF93162FC72FD82FC9015A
:101260000E19070FBA0173DE6C2F081B802F5DDF8C
:10127000612F782F8D2FDF91CF911F910F91EF90DC
:1012800008950F931F93CF93DF93162FD72FC82F57
:10129000C9012C2F201B022FBA0159DE982F990F5C
:1012A000990F891B6C2F800F40DF612F7D2FDF91FD
:1012B000CF911F910F9108950F931F93CF93DF93B9
:1012C000162FC72FD82FC901272F201B022FBA0195
:1012D0003EDE982F990F990F891B6C2F800F25DF09
:1012E000612F782F8D2FDF91CF911F910F9108954E
:1012F0000F931F93CF93DF93162FD72FC82F022F53
:10130000E42FF0E0EE0FFF1FE354FE4F64EE808108
:101310000CDF4C2F50E0282F30E0245E3F4F201B85
:10132000310937FF03C031952195310983E0220F40
:10133000331F8A95E1F7CA01821B930B97FD80E06A
:101340006C2FF3DE612F7D2FDF91CF911F910F91D5
:1013500008950F931F93CF93DF93162FC72FD82F86
:10136000022FE42FF0E0EE0FFF1FE354FE4F64EE78
:101370008081DBDE4C2F50E0282F30E0245E3F4F91
:10138000201B310937FF03C031952195310983E0D6
:10139000220F331F8A95E1F7CA01821B930B97FD39
:1013A00080E06C2FC2DE612F782F8D2FDF91CF91DF
:1013B0001F910F9108951F93CF93DF93D62FC72FBF
:1013C000182F822F869519DE805887FD8195612F11
:1013D000880FABDE6D2F7C2FDF91CF911F91089589
:1013E000B0E0A0E0E6EFF9E00C94952C9B01E82F2B
:1013F000F0E0EC53FD4F311109C0E4918E2F7E2FA8
:101400006E2FCDB7DEB7E8E00C94B12CE32EF12CB3
:10141000E491FE2F0E2F10E046E0649FC0011124DE
:10142000CFEFD0E0BE010E94772CAB01822F90E07D
:10143000880F991F25E5249FB001259F700D112469
:10144000861B970B982F990F980FBE016E197F0975
:10145000609FD001619FB00D709FB00D11248B2F44
:10146000399F90011124232F3327BE01621B730B78
:10147000609F9001619F300D709F300D11246E01AF
:10148000C91AD108CE9CB001CF9C700DDE9C700DA6
:101490001124672F7727C61BD70BC09F7001C19FF0
:1014A000F00CD09FF00C11247F2D42305105A1F09B
:1014B00050F44115510509F4A3CF4130510581F095
:1014C0007B2F832F9DCF4430510569F080F046304B
:1014D000510509F495CFF4CFEB2F8F2D7F2F90CFAF
:1014E0007E2FE32F8DCFEF2D7B2F8F2F89CF732F63
:1014F000EB2FFBCFB0E0A0E0E0E8FAE00C94962CF4
:10150000C82FD0E0FE01E75BFD4F8081682341F1E9
:10151000D09066050091670510916505E12EF12CCC
:101520008BDD282FC7018C549F4F68E671E00E9425
:10153000C22C8E199F0997FD0396959587959595D1
:10154000879543E0249F90011124612F839F600DB4
:1015500011247D2D802F44DF472F282FCE01F4DC6E
:10156000CDB7DEB7E7E00C94B22C2F923F925F929A
:101570006F927F928F929F92AF92BF92CF92DF92A3
:10158000EF92FF920F931F93CF93DF93CDB7DEB708
:1015900029970FB6F894DEBF0FBECDBF8A837D8337
:1015A0006C8380911C0143DB9983209137052B8349
:1015B000E82FF0E0F987E887CF01880F991F9C0199
:1015C00023543E4F69013A81832F90E0FC0131960C
:1015D000FF83EE83898198859817E8F081E0E9819F
:1015E000E63408F080E029960FB6F894DEBF0FBE0F
:1015F000CDBFDF91CF911F910F91FF90EF90DF90C2
:10160000CF90BF90AF909F908F907F906F905F90A2
:101610003F902F900895E885F985E75BFD4F808125
:1016200090911D018923D1F03090650510916605D8
:101630002E813F81295C3A4F39015A80212CFB8150
:101640005F16B0F060916705822D6FDD632D712FFD
:10165000C7DE472F282F8885998576DC2885398530
:101660002F5F3F4F3987288732E0C30ED11CB2CF9E
:10167000F30181913F01F601A080A81ABB08818087
:10168000F3018781881A9908AA9C9001AB9C300DC0
:10169000300D1124889CC001899C900D900D11245F
:1016A000820F931FDEDC082F6091680521E0620F36
:1016B00008F46FEFF301EE0FFF1FE753F540858944
:1016C000968926DD7C019401A501632D712F822D61
:1016D000EC81FD810995362E172F5394282EAFCF1C
:1016E000B0E0A0E0E6E7FBE00C94962C8C01809142
:1016F0001C019DDAC82FD92E2091680531E0230FF7
:1017000008F42FEF30E050E040E06FEF7FEF80E033
:1017100090E00E94992D7901D0E02C2FCD1550F04A
:1017200081E0F5E4FD1508F480E0CDB7DEB7E7E031
:101730000C94B22CFE01E75BFD4F808190911D015E
:101740008923F1F0409137054150042E000C550BD0
:1017500047FF18C0C7016091680521E0620F08F4D7
:101760006FEFD6DCAC0160916505709166058091E4
:101770006705F801099534DE472F282FCE01E4DBF9
:101780002196CBCFFA01E95CFA4F818982130AC016
:10179000FA01EE0FFF1FE95CFA4F818D928D8E15D5
:1017A0009F05C8F241505109D3CFEF92FF920F939A
:1017B0001F93CF93DF937C0180911C0138DAC82FEF
:1017C000192F609168056695669521E0620F08F40F
:1017D0006FEF80913305909134059ADC082FD0E0AB
:1017E000C11748F081E0163408F080E0CDB7DEB7CD
:1017F000E6E00C94B32CFE01E75BFD4F80819091F5
:101800001D01892379F060916505709166058091CD
:101810006705202F4C2FF7010995E2DD472F282F70
:10182000CE0192DB2196DCCFB0E0A0E0EAE1FCE063
:101830000C94932C6C0180911C01F9D9C82FF92EBE
:1018400060916805669566958091330590913405A1
:101850005FDC182F80E4810FD0DB90E8B92EB80E42
:10186000812FCBDB20E8A22EA80ED0E0CF1550F0C0
:1018700081E095E49F1508F480E0CDB7DEB7EAE09B
:101880000C94AF2CFE01E75BFD4F808190911D0110
:10189000892389F0609165057091660580916705DF
:1018A000E12E0C2F2A2D4B2DF601099599DD472F9E
:1018B000282FCE0149DB2196D9CFB0E0A0E0E3E6A6
:1018C000FCE00C94912C6C0180911C01B0D9C82FC4
:1018D000192F6091680566958091330590913405C4
:1018E00017DCF82ED0E0C11748F081E0163408F07C
:1018F00080E0CDB7DEB7ECE00C94AD2CFE01E75BE9
:10190000FD4F808190911D018923A9F1CE01880F9F
:10191000991F89589E4FFC01EA5BFF4F2081422F9F
:101920004057550B5A01895B9F4FFC018081282F3E
:101930002052330B4901449F9001459F300D300DDB
:101940001124889CC001899C900D900D1124820F58
:10195000931F87DB082F6091650570916605809164
:101960006705EF2C9401A501F601099539DD472F94
:10197000282FCE01E9DA2196B6CFB0E0A0E0E3EC63
:10198000FCE00C94962C7C0180911C0150D9C82F4E
:10199000192F609168056695809133059091340503
:1019A000B7DBD82ED0E0C11748F081E0163408F03C
:1019B00080E0CDB7DEB7E7E00C94B22CFE01E75B28
:1019C000FD4F808190911D018923F9F0CE01880F90
:1019D000991F89589E4FFC01E95BFF4F20812052DF
:1019E000330B8A5B9F4FFC0140814057550B609140
:1019F000650570916605809167050D2DF7010995C4
:101A0000EFDC472F282FCE019FDA2196CCCF1F93F2
:101A1000CF93DF93C82FD0E0FE01E75BFD4F8081BD
:101A2000682389F009DB182F07DB20E8829FC001BB
:101A300011247FE7790F612F80916705D1DC472F53
:101A4000282FCE0181DADF91CF911F91089580E098
:101A50000895F894E82FE295EF70F0E031A1282F77
:101A60002F7081E090E001C0880F2A95EAF7982F47
:101A70009095932391A392A1892B82A378940895A2
:101A80009091DD0492FF10C041E0282F2471243092
:101A900009F040E031E0282F2871283009F030E0CB
:101AA000431711F02CE0822793FF10C041E0282F4C
:101AB0002471243109F040E031E0282F28712831C9
:101AC00009F030E0431711F02CE082273091DE045A
:101AD00030FF10C051E0282F2171213009F050E073
:101AE00041E0282F2871283009F040E0541711F008
:101AF00029E0822731FF10C041E0282F21712131D8
:101B000009F040E031E0282F2871283109F030E059
:101B1000431711F029E0822794FD877E08958238CB
:101B20009105B9F1B0F48133910509F47DC048F411
:101B30008932910509F46DC08A32910509F47BC0A0
:101B400008958533910509F45FC08933910509F142
:101B50000895833E9105D9F138F4803E910529F12D
:101B6000823E910579F10895863E9105D9F1873E2F
:101B7000910509F43EC0843E910541F52091DE04B3
:101B800021FF24C08091DD0484FD19C087EE90E020
:101B900008952091DD04237009F05AC02091DE04DD
:101BA00023FF14C089E290E008952091DD0420FD18
:101BB00038C03091DE0430FF09C024FF43C090E0FC
:101BC00080E008952091DD0422FDF7CF0895209153
:101BD000DD0422FD3AC03091DE0430FD39C024FF1F
:101BE000F5CFEDCF2091DD0423FFF0CF24FDE7CF2B
:101BF000CDCF2091DD0423FD2EC03091DE0431FFD6
:101C0000EECF84EE90E008952091DD0425FFDECF35
:101C1000C9CF2091DD0425FD21C02091DE0423FFE2
:101C2000D5CF89E390E0D2CF2091DD0426FFCECF3F
:101C30008AE290E008952091DD0426FFC7CF81E37A
:101C400090E0089583EE90E0089582EE90E008958C
:101C500080EE90E0089586EE90E0089585E390E0B0
:101C60000895972F7530B8F46E30A8F48230B0F430
:101C700070E02EE0929F600D711D1124FB0196E42F
:101C8000899FE00DF11D1124EE0FFF1FE455FE4F5B
:101C900085919491089580E090E0089581E0FCCFD3
:101CA0001F93CF93DF933BDFEC01C11580E5D8078D
:101CB000F0F5C11580E4D80708F09AC0C03ED10500
:101CC00020F5CD3CD10508F082C0C83AD10578F4A2
:101CD000C53AD10508F073C0C130D10519F120977C
:101CE00009F1C430D105F0F4D0E0C0E01BC0C33C22
:101CF000D105D0F7C85AD0E0CC0FDD1FCA5DDE4F4A
:101D00000990D881C02DD4640DC0C11580E2D807D8
:101D100008F0CDC0C11581E0D80708F05AC0C83E10
:101D2000D10510F7CE01DF91CF911F910895C036F4
:101D300082E5D80718F5C03482E5D80708F068C0F6
:101D4000C03282E5D80708F05CC0C11582E5D8072B
:101D500008F493C02C2F2695269580E2289F9001A9
:101D600011248C2F8370C1E0D0E002C0CC0FDD1FA6
:101D70008A95E2F7C22BD32BDD68D4CFC03A82E537
:101D8000D80760F4C03882E5D80708F456C0CF7190
:101D9000D0E0DC2FCC27C46FD06AC4CFC03C82E532
:101DA000D80708F45FC0C03E82E5D80708F09CCF92
:101DB000DC2FCC27CC27DF71C06FD06AB3CFC55AD8
:101DC000D0E0CD5DDE4FC881D0E0D064ABCFD06530
:101DD000A9CF8D2F55DE182FCE019927A0DEC12F58
:101DE000D0E0DC2FCC27CC27DF71C82BD92B9ACFA2
:101DF000CE01992794DECC27DF70C82BD92BD06A6F
:101E000091CFCF71D0E0DC2FCC27C16FD06A8ACFC1
:101E10002C2F26952695277080E2289F900111246B
:101E20008C2F8370C1E0D0E002C0CC0FDD1F8A95FB
:101E3000E2F7C22BD32BDC6875CF2C2F2695269585
:101E4000277080E2289F900111248C2F8370C1E0BD
:101E5000D0E002C0CC0FDD1F8A95E2F7C22BD32B56
:101E6000DA6860CF8C2F8F710BDEC82FD0E0DC2FAB
:101E7000CC27CC27DF71D06255CF8C2F8F7100DE3D
:101E800055E0D695C7955A95E1F7CF70D0E0DC2F95
:101E9000CC27282F30E084FF06C044E0220F331FF8
:101EA0004A95E1F73327C22BD32BD0693BCF8D2F37
:101EB0008F71E6DD182FCE01992731DEC12FD0E0DA
:101EC000DC2FCC27CC27DF71C82BD92BD4CF809522
:101ED0009091FE0398239093FE0308958091FE0352
:101EE0009091D503892B9091D403992391F0892B5C
:101EF00090911A01913071F49091DD0497FF0AC01E
:101F00009EE12CE932E040E0915040F44111109202
:101F1000D403089596E024E932E0F5CFF901519118
:101F20009F01552389F34F5FEFCF80913205909148
:101F3000F904981301C008958F5F8770FACFB0E05D
:101F4000A0E0E5EAFFE00C94942C7C0100911004E1
:101F50001091110480910E0490910F04082B192BFD
:101F6000CFE0D0E0CC24C394D12CBC2EC6010C2EE3
:101F700002C0880F991F0A94E2F780239123892BCE
:101F800049F4219790F7B12C8B2DCDB7DEB7E9E05E
:101F90000C94B02CB7018C2F64DE82DE019789F39C
:101FA000F3CFCF93DF93EC01CADFBE015ADE78DEB8
:101FB000DF91CF910895953078F58E3068F5E82F50
:101FC000F0E08EE0989FE00DF11D11249E2F977098
:101FD00083E0F695E7958A95E1F7EE0FFF1FEE0F88
:101FE000FF1FE855FC4F50E040E080E0219130E0D9
:101FF000092E02C0369527950A94E2F721703327FF
:10200000042E01C0220F0A94EAF7822B4F5F5F4F24
:102010004430510559F7089580E00895953098F5BA
:102020008E3088F5E82FF0E08EE0989FE00DF11DEE
:1020300011248E2F877041E001C0440F8A95EAF782
:1020400083E0F695E7958A95E1F7EE0FFF1FEE0F17
:10205000FF1FE855FC4F30E020E070E05191DF01B8
:102060001197CB01022E02C0969587950A94E2F74C
:10207000817081958527842385278C932F5F3F4F1F
:102080002430310559F7089590931104809310047A
:10209000089521E030E002C0220F331F8A95E2F755
:1020A0002095309580911004909111048223932300
:1020B000EBCF9091D303809589238093D303282F6E
:1020C000277061F4891751F09091DE0492FF06C0E9
:1020D000869586958695DDDF1092D303089521E0DD
:1020E00030E002C0220F331F8A95E2F7809110047E
:1020F00090911104822B932BC7CF90930F04809360
:102100000E040895FC0124812223B9F0808191817D
:1021100048DF92959F70963091F058F4925F9F70CF
:10212000923058F4803F19F030F4883E30F481E06A
:1021300008959A5FF4CF843FD1F380E00895883EFC
:10214000B0F3813FD1F7F3CFA6E0B0E0EAEAF0E1E7
:102150000C949A2C26E0FC01DE01119601900D9260
:102160002A95E1F7FC01258189819A81222381F05A
:10217000662371F0E4DE182F682F89819A814EDF83
:1021800069817A81812F6DDD2696E3E00C94B62C6F
:1021900012DF182FF5CFA1E0B0E0E1EDF0E10C94F3
:1021A000992C698304E610E021E030E0AE014F5F36
:1021B0005F4F682F80EA0E94332C2196E4E00C9454
:1021C000B52CCF93C82F65EC8EEFE5DF6C2F8DEF2C
:1021D000E2DFCF9108950F931F93CF93DF938B018D
:1021E000EA019091EF04943061F58093E9008FEF5C
:1021F0009091E800815095FD06C095ED9A95F1F714
:1022000000008111F5CF8091E80085FF1AC00E947F
:102210004B03811111C08091E80085FD06C08091BB
:10222000E8008E778093E800F2CFF80181918F016A
:102230008093F100219779F78091E8008E77809361
:10224000E800DF91CF911F910F91089543E050E096
:10225000BC0182E0C0CF46E050E0BC0182E0BBCFD1
:1022600040E250E0BC0182E0B6CFCF93DF93EC01B7
:1022700048E050E0BC0181E0AEDF88E0FE01A5EE61
:10228000B4E001900D928A95E1F7DF91CF91089526
:1022900081E08093E00080E28093D8001092C90032
:1022A0008FE19EE40197F1F700C0000087E090EB1A
:1022B000DC0180936C0590936D05A0936E05B0933F
:1022C0006F0588E19CE00FB6F894A89580936000B4
:1022D0000FBE90936000FFCFEF92FF920F931F937A
:1022E000CF9380917A038823C1F081E06ADF8AEB83
:1022F000E82E82E0F82EC0E004E610E020E130E0B5
:10230000A7016C2F80EA0E94332CC05F50E1E50EDC
:10231000F11CC03C89F710927A0331B33E7F21B3A0
:1023200021604FB7F89484E993E0FC015191CF010B
:1023300068E021BB000000C057FF31BB550F000013
:1023400000C000C000C031BB00C06A9591F7F3E047
:10235000863A9F0751F74FBF8FE594E00197F1F759
:1023600000C00000CF911F910F91FF90EF90089552
:10237000E4E6F5E081E380838091200190912101E2
:10238000A091220181839283A3838FE784838FEFBF
:10239000858348E050E067E170E0CF010E946C2D3A
:1023A0001092630508959091DE0492FB222720F994
:1023B000281771F080FB92F99093DE046091DD04A0
:1023C0007091DE0484E090E00E94952D82E071CE51
:1023D000089580911A01813061F58091DD0487FFB5
:1023E00028C07CDD80939B0240E250E066ED73E004
:1023F0008AE992E00E94392D892BD1F080E2EAE946
:10240000F2E0A6EDB3E001900D928A95E1F7E0913C
:10241000D904F091DA04309759F00480F581E02D69
:10242000309731F086E080939A028AE992E009952C
:10243000089554DD8093920248E050E066EF73E027
:1024400082E992E00E94392D892B91F388E0E2E93C
:10245000F2E0A6EFB3E001900D928A95E1F7E091EA
:10246000D904F091DA04309719F30280F381E02D5A
:102470003097F1F282E992E0DACF882311F027DD7C
:10248000A8CF0895882331F09091FE03982B909364
:10249000FE039FCF0895A4E0B0E0E1E5F2E10C94E3
:1024A000932C0E94FF2B80E08CDE10E060E0812FF7
:1024B00072DE1F5F1831D1F781E083DE10E060E04B
:1024C000812F69DE1F5F103CD1F783E07ADE60E088
:1024D0008FE061DE60E080E15EDE6FEF81E05BDE79
:1024E00061E080E058DE8FE39CE90197F1F700C0DE
:1024F0000000809A0CEA10E09CEAC92E91E0D92EE7
:102500002AEDA22EEE24E394F12CBB24B39444E0F4
:1025100050E0B801CE0101960E94302D4A813B81E6
:102520002C8189818370E42FE695E695E695A89E37
:10253000C001112486549D4FE80FF92FF11DEF5370
:10254000FF4F4770B70101C0660F4A95EAF7408117
:10255000462B4083E32FE695E695E695E80FF92FA5
:10256000F11DEF53FF4F3770A70101C0440F3A959B
:10257000EAF73081342B3083E22FE695E695E69535
:10258000E80FF92FF11DEF53FF4F2770A70101C08E
:10259000440F2A95EAF72081242B208387529F4FEE
:1025A000FC01B0820C5F1F4FC016D10609F0AFCFFF
:1025B00080E007DE8BE7E82E83E0F82E10E0F701DD
:1025C00061917F01812FE7DD1F5F1831C1F7109204
:1025D00093032496EAE00C94AF2CA4E0B0E0E3EF80
:1025E000F2E10C94972CF62E042F122F80349105D3
:1025F00008F047C0880F991F880F991FBC016455C8
:102600007F4F44E050E0CE0101960E94302D898139
:1026100083702A8130E0482F50E06AED869FC00128
:10262000112486549D4FFC01E20FF31F6081AB81A2
:10263000EC806F110DC0BC016A0F711DFB01608140
:10264000601306C08E0D911DFC0180818117C9F0B9
:102650006AED649FC001659F900D112486549D4FC3
:10266000280F391FF901F082A80FB92FB11D0C9363
:10267000FC01EE0DF11D108380549F4F21E0FC0101
:1026800020832496E6E00C94B32CFF920F931F93C3
:10269000CF93DF93F82E062F142FD0E0C0E0212F28
:1026A000402F6F2DCE0199DF2196C034D105B9F7A7
:1026B000E4E9F3E0F18200831283339683E0E63AA3
:1026C000F807C1F7CDB7DEB7E5E00C94B42C803441
:1026D00091050CF482CF80549109FC01EE0FFF1F8D
:1026E000E80FF91FEC56FC4F618340832283089565
:1026F0001F920F920FB60F9211242F933F934F9377
:102700005F936F937F938F939F93AF93BF93EF9359
:10271000FF938091E10082FF09C08091E20082FF77
:1027200005C08091E1008B7F8093E1008091DA0009
:1027300080FF24C08091D80080FF20C08091DA0003
:102740008E7F8093DA008091D90080FFAAC080E15B
:1027500089BD82E189BD09B400FEFDCF81E080938F
:10276000EF048091E404811109C00E942C030E94AF
:10277000CD038091E20084608093E2008091E100CB
:1027800080FF1AC08091E20080FF16C08091E200B5
:102790008E7F8093E2008091E20080618093E2006E
:1027A0008091D80080628093D80019BC85E0809326
:1027B000EF0483E080931B018091E10084FF30C02F
:1027C0008091E20084FF2CC080E189BD82E189BD57
:1027D00099B5892F817090FFFBCF9091D8009F7D94
:1027E0009093D8009091E1009F7E9093E1009091AA
:1027F000E2009F7E9093E2009091E20091609093BE
:10280000E2009091F004992309F451C094E0909370
:10281000EF049091EF04943009F482E080931B015F
:102820008091E10083FF2CC08091E20083FF28C0EB
:102830008091E100877F8093E10082E08093EF0444
:102840001092F0048091E1008E7F8093E1008091EE
:10285000E2008E7F8093E2008091E20080618093AD
:10286000E20042E060E080E00E949B038091F00083
:1028700088608093F00081E080931B0180931A01AF
:10288000FF91EF91BF91AF919F918F917F916F9148
:102890005F914F913F912F910F900FBE0F901F901E
:1028A000189519BC1092EF041092E40467CF909130
:1028B000E30097FD02C0982FAACF93E0A8CF7894A9
:1028C0001F921FB61F9211248F939F93AF93BF93B4
:1028D0008091E0049091E104A091E204B091E304BE
:1028E0000196A11DB11D8093E0049093E104A09393
:1028F000E204B093E304BF91AF919F918F911F9039
:102900001FBE1F9018952FB7F8948091E004909106
:10291000E104A091E204B091E3042FBF0895CF93A6
:10292000DF93EC01F0DF8C1B9D0BDF91CF910895BD
:10293000EADF9C019091D3048091D404982B21F07C
:102940003093D0042093CF049091D5048091D60485
:10295000982B21F03093CE042093CD04E091D9043C
:10296000F091DA04309759F00680F781E02D309726
:1029700031F082E08093D10481ED94E009950895CF
:102980001092FE0380911A01813021F58091DD04BF
:1029900087FF20C0ECE9F2E08EE1DF011D928A950D
:1029A000E9F790E080E00E941A0590E080E00E9444
:1029B000F3041092D5030DDD86E0E1EDF4E0DF01D4
:1029C0001D928A95E9F71092CA041092CB041092D6
:1029D000CC04AECFE4E9F2E086E0DFCFAAE2B0E0DB
:1029E000E4EFF4E10C949A2C81EF94E02091F10053
:1029F000FC012193CF01F4E0893F9F07B9F7809153
:102A0000F204833009F470C0B8F4813009F447C08F
:102A1000823009F4B4C08091E80083FF88C28091BD
:102A2000F1049091F2049A3008F081C2E92FF0E0AD
:102A3000E850F24D0C94D52C8A3009F48FC08B30BD
:102A400009F46FC0893039F78091F104813219F7A8
:102A50008091F5049091F6040297E8F68091E800E1
:102A6000877F8093E8008091E80082FF38C09091D2
:102A7000F3008091F200029731F48091F1008130EF
:102A800011F0863021F48091F1008093190180913A
:102A9000E8008B778093E8000E947C03BCCF809194
:102AA000F104813A09F0B7CF8091E800877F8093E5
:102AB000E8008091F5049091F604892B61F468E0B8
:102AC00085EE94E070E00E9427048091E8008B7707
:102AD0008093E800A0CF60E090E080E0F3CF8091A9
:102AE000EF048111C0CF97CF8091F104813A09F0B2
:102AF00092CF8091F5049091F604892B09F08BCF49
:102B00008091E800877F8093E8008091E80080FF53
:102B1000FCCF80911A018093F1008091E8008E77BC
:102B2000B9CF8091F104813209F075CF8091F5041D
:102B30009091F604892B09F06ECF8091E800877F91
:102B40008093E8000E947C0381E09091F30491114E
:102B500001C080E080931A0113DF5DCF8091F10402
:102B6000813209F058CF8091E800877F8093E80098
:102B70000E947C038091F404809318014CCF8091D3
:102B8000F104813A09F047CF8091E800877F809374
:102B9000E8008091E80080FFFCCF80911801BBCF56
:102BA000803899F0823809F0C2C18091F5048F70A5
:102BB000873008F0BCC18093E9008091EB0085FB71
:102BC000882780F91092E90006C08091ED04909169
:102BD000EE04911182609091E800977F9093E80055
:102BE0008093F1001092F1008091E8008E779BC1F4
:102BF000882309F489C1823009F099C18091F304D6
:102C000081118CC18091F5048F702FEF280F263031
:102C100008F08DC18093E9002091EB0020FF7EC178
:102C2000933031F48091EB0080628093EB0076C1A9
:102C30009091EB0090619093EB0021E030E001C0B7
:102C4000220F8A95EAF72093EA001092EA00809119
:102C5000EB008860EACF81116AC11091F3041F77FD
:102C60008091E3008078812B8093E3008091E800DD
:102C7000877F8093E8000E947C038091E80080FFBA
:102C8000FCCF8091E30080688093E30082E0111123
:102C900083E08093EF044BC18058823008F047C135
:102CA0008091F3049091F4048C3D23E09207A1F508
:102CB00083E08A838AE289834FB7F894DE01139612
:102CC00020E03EE051E2E32FF0E050935700E49122
:102CD00020FF03C0E295EF703F5FEF708E2F90E012
:102CE000EA30C0F0C7968D939D932F5F243159F73A
:102CF0004FBF8091E800877F8093E8006AE270E030
:102D0000CE0101960E9427048091E8008B77809382
:102D1000E8000DC1C096E7CF4091F5045091F6044C
:102D2000292F33272330310509F444C078F52130A9
:102D3000310509F46FC08BE390E0EEEBF4E0223054
:102D4000310509F0F4C02091E800277F2093E800C6
:102D50002091F7043091F8048217930708F49C013E
:102D600040E02115310509F064C0411162C0809135
:102D7000E80082FDC9CF8091EF04882329F28530D5
:102D800019F28091E80083FFF2CFBECF21323105E6
:102D9000A9F12232310509F0CAC04115510509F4E3
:102DA00043C04130510509F0C2C086EB90E0E4EC2D
:102DB000F3E0C9CF992781309105C1F0009759F010
:102DC000029709F0B4C0EBE0F5E0E4918E2F90E0BB
:102DD000EBE0F5E007C0EBE4F5E0E4918E2F90E046
:102DE000EBE4F5E0009709F4A2C0ADCFE3E3F5E032
:102DF000E4918E2F90E0E3E3F5E0F4CF4115510527
:102E000071F04130510509F092C089E090E0E9EE9F
:102E1000F4E099CF82E190E0E9EFF4E094CF89E02B
:102E200090E0E0EDF4E08FCF84E490E0EAE7F4E0B6
:102E30008ACF8091EF04882309F466CF853009F4A6
:102E400063CF8091E80083FD5FCF8091E80082FD31
:102E50008ECF8091E80080FF84CF9091F300809125
:102E6000F2002115310519F08830910550F041E04C
:102E7000089709F040E08091E8008E778093E800A1
:102E800070CF44914093F100319621503109019661
:102E9000E8CF803809F04BC08091E800877F8093AD
:102EA000E8008091F0048093F1009ECE81113FC034
:102EB0001091F3041230D8F58091E800877F809359
:102EC000E8001093F0040E947C03112311F084E0C9
:102ED00005C08091E30087FDFACF81E08093EF0485
:102EE00042E061EC81E00E949B0342E261EC82E0FF
:102EF0000E949B038091EF04843021F081E0809355
:102F00001B0115C082E0FBCF8091F304813079F47E
:102F100081E0933009F080E08093EE041092E900A4
:102F20008091E800877F8093E8000E947C03809175
:102F3000E80083FF0AC08091E800877F8093E80063
:102F40008091EB0080628093EB00AA96E3E00C9402
:102F5000B62C1F920F920FB60F9211242F933F930E
:102F60004F935F936F937F938F939F93AF93BF9391
:102F7000CF93DF93EF93FF93D091E900DF708091BF
:102F8000EC00C82FC17080FDC0E81092E90080916C
:102F9000F000877F8093F000789420DD1092E900A4
:102FA0008091F00088608093F000CD2BCF70C093AB
:102FB000E900FF91EF91DF91CF91BF91AF919F9188
:102FC0008F917F916F915F914F913F912F910F90D2
:102FD0000FBE0F901F901895D3DC2FEF84E39CE079
:102FE000215080409040E1F700C0000088E19CE063
:102FF0000FB6F894A895809360000FBE9093600080
:10300000FFCF662309F45BC08D3C31F40E9472054A
:1030100081958093D4048CCC8E3C19F40E94720567
:10302000F8CF8F3C31F40E94720581958093D304D0
:10303000F2CF803D19F40E947205F8CF893D29F442
:103040000E9450058093D504E6CF8A3D21F40E946A
:1030500050058195F7CF8B3D31F40E945005819545
:103060008093D604D8CF8C3D19F40E945005F8CF38
:103070009FE2980F983070F4815D990B21E030E069
:1030800001C0220F8A95EAF78091D204822B8093A7
:10309000D204C1CF8D3D31F48091CC048160809306
:1030A000CC04B9CF8E3D21F48091CC048260F7CF5F
:1030B0008F3D09F0B0CF8091CC048460F0CF409177
:1030C000D3048D3C59F48091D40487FF0DC0109235
:1030D000D40441110BC01092CA0408C08E3C81F484
:1030E0008091D40418169CF3442381F08091D50478
:1030F0009091D604892B09F08ECF1092CB048BCF00
:103100008F3C49F447FFF0CF1092D3048091D40450
:103110008111ECCFE0CF803D19F41416ACF3E4CF6D
:103120009091D504893D29F41916F4F61092D5042E
:10313000DBCF8A3D19F497FFD7CFF8CF9091D60413
:103140008B3D29F497FFD0CF1092D604CDCF8C3D84
:1031500019F41916CCF3C8CF9FE2980F983090F469
:10316000815D990B21E030E0B90102C0660F771F45
:103170008A95E2F7CB0180959091D20489238093C0
:10318000D204B2CF8D3D31F48091CC048E7F8093F8
:10319000CC04AACF8E3D21F48091CC048D7FF7CF53
:1031A0008F3D09F0A1CF8091CC048B7FF0CF882395
:1031B00059F19CEF980F913A18F40E94940409C9B0
:1031C00090E2980F983050F4877091E001C0990F09
:1031D0008A95EAF7892F0E94670FF1CF9BE5980F38
:1031E000933020F490E080E00C941A0598E5980F55
:1031F0009B3120F490E080E00C94F30493E3980F6B
:10320000933110F460E0FDCE0895CF93C82F88234A
:10321000A1F18CEF8C0F813A90F580911A018130E9
:10322000F9F48091DD0487FF1BC0EC2FE695E6954D
:10323000E695F0E0E656FD4F828190E04C2F477016
:1032400021E030E002C0220F331F4A95E2F78223CB
:103250009323892B71F08C2F0E949404BAD809C053
:10326000E4E9F2E08191C817B1F382E0EA39F807A6
:10327000C9F78C2F0E94BF04ACD8CF91089580E28B
:103280008C0F883068F4C77021E030E001C0220F55
:10329000CA95EAF78091FE03822B8093FE03ECCF60
:1032A000EBE5EC0FE33040F4F0E0ED5DFE4F8081A4
:1032B00090E00E941A05E1CFE8E5EC0FEB3150F405
:1032C000F0E0EE0FFF1FEA5DFE4F808191810E94CA
:1032D000F304D3CF83E38C0F833178F661E08C2F36
:1032E00090DECBCFEF92FF920F931F93CF93DF939C
:1032F000C62FD42F022FFC018581882399F060937B
:10330000620501DB9093610580936005C77081E0E1
:1033100001C0880FCA95EAF7B5D8CDB7DEB7E6E0A9
:103320000C94B32C80916205681331C0E090600565
:10333000F0906105E8DA8E199F09883C910538F50F
:1033400010E21D0FCD17A9F080E28C0F883038F401
:10335000C77081E001C0880FCA95EAF78ED818308F
:1033600040F481E09D2F977001C0880F9A95EAF78D
:1033700089D8802F4ADF802F1ADF183070F6D77077
:1033800081E001C0880FDA95EAF777D8C6CFC77019
:1033900081E001C0880FCA95EAF7F7CFB0E0A0E05E
:1033A000E4EDF9E10C94932C7C01FC0184818823E9
:1033B00019F161E0C7010E94A410EC01FC01E85181
:1033C000FC47E730F105A0F5EE5FF14D0C94D52CEC
:1033D00026E241EE61EEC70185DF8091D30387705D
:1033E00059F0F7018581882339F08091DE0482FF4E
:1033F00003C082E00E945910CDB7DEB7EAE00C941A
:10340000AF2C27E245EE65EEE6CF26E241EE60EE18
:10341000E2CF27E245EE64EEDECF26E241EE62EE39
:10342000DACF27E245EE66EED6CF28E241E0EBCFD9
:10343000F7019581992309F4E2C3109262059E0178
:1034400030572332310508F0C6C384E090E00E9473
:10345000672D9093DE048093DD04FE01E150F04778
:10346000E232F10520F4E75FF14D0C94D52C809108
:10347000DD0481608093DD0492C08091DE04886069
:103480008093DE048CC08091DD048260F3CF809154
:10349000DD048460EFCF8091DD048860EBCF809104
:1034A000DE048160EDCF8091DE048260E9CF8091FF
:1034B000DD048061DFCF8091DD048062DBCF80910D
:1034C000DD048064D7CF5CDA8091DD048068D2CFE0
:1034D0008091DD048C60CECF8091DE048360D0CFFC
:1034E0008091DD048E7FC6CF8091DE04877FC8CFB8
:1034F0008091DD048D7FBECF8091DD048B7FBACFBC
:103500008091DD04877FB6CF8091DE048E7FB8CFB7
:103510008091DE048D7FB4CF8091DD048F7EAACFB1
:103520008091DD048F7DA6CF8091DD048F7BA2CFBB
:1035300027DA8091DD048F779DCF8091DD04837F32
:1035400099CF8091DE048C7F9BCF8091DD0482FB3C
:10355000992790F921E0922790FB82F990FB83F95B
:1035600089CF8091DE04982F909591708E7F892B62
:1035700090FB81F985CF9091DD04892F8F7B96FF99
:10358000806478CFFDD99091DD04892F97FB87F96E
:10359000805870CF61E08EE090E00E947B2D6091BA
:1035A000DD047091DE0484E090E00E94952DE8D95E
:1035B00014CF60E0F0CF9091DD04892F8F7E94FFCF
:1035C000806158CF9091DD04892F8E7F90FF8160BC
:1035D00051CF9091DE04892F877F93FF886050CF71
:1035E00085E308C385E314C30E940906F6CE882349
:1035F000A9F10E94F805F1CE8823A9F10E94E805FF
:10360000ECCE8823A9F10E94D205E7CE8823A9F148
:103610000E94BC05E2CE8823A9F10E94A005DDCE60
:1036200080916405837011F410921F0180916405EC
:103630008C7F8160809364058091630581608093B5
:103640006305CBCE80916405837011F010921F0149
:10365000809164058C7FEECF882359F20E9400068A
:10366000BCCE882359F20E94F005B7CE882359F2C8
:103670000E94DD05B2CE882359F20E94C705ADCE67
:10368000882359F20E94AE05A8CE9E01205E3245E5
:1036900020323105A8F4911115C0CF7181E090E07E
:1036A0009C0102C0220F331FCA95E2F7E901622F85
:1036B00083E090E00E947B2DCE010E947D108DCE94
:1036C000992381F0C3303CE7D30709F476C008F0B2
:1036D0005AC0C1159CE7D90709F463C0C130DC4763
:1036E00009F471C0F7018581C081D181882309F473
:1036F00077C0CE010E949F0F182F682FCE010E9425
:103700000E10BE01812F0E94310E0E94500ED82F44
:10371000C92FA82EF701C580B680B2949FE0B922C8
:103720008091D303877001F10C2DCC20F1F08C2F08
:10373000807F803469F080E28D0F8830A8F08C2F74
:10374000807E803229F4F1E0FD1770F4BB2061F037
:103750008091DE0482FF08C082E00E9459108091AF
:10376000D303877001E009F000E0DC2ED2948FE0F3
:10377000D8222BE02D1508F491C0ED2DF0E0E55D89
:10378000F14D0C94D52CCB35FCE7DF0739F1CC3566
:103790002CE7D207C9F0CA35DC4709F0A3CF81E096
:1037A0001AC0EED88FEF94E3ECE081509040E040F7
:1037B000E1F700C000000E9448116FEF7FEF90E03A
:1037C00080E00E94952D08DC8091DE0482FB882732
:1037D00080F991E089270E94D31184CF80E0FBCF4C
:1037E000CE010E94DB0F182F8CCF1C2F1F70C07FC3
:1037F00011F01295107FCC20B9F0112369F080E20E
:103800008D0F883010F0A11009C08091FE03182B95
:103810001093FE030E94E9118D2F3FC08091D503C4
:10382000182B1093D503F6CF8D2FC1DC1123B1F1E6
:10383000D05ED83010F0A11004C0812F0E94670F15
:1038400006C010958091D50318231093D5030E94CC
:10385000E91124C01C2F1F70C07FC03211F01295D7
:10386000107FAA2051F031E0A31609F457C0CC20F4
:1038700009F463C0BB2041F1CFCF8091DE0482FD0B
:103880001FC0CC20C1F0112339F08091FE03182B0A
:103890001093FE030E94E91180E0B7DCED2DE850A3
:1038A000FF0B349708F07FC10E94410560E0C7011B
:1038B0000E94A410A1CD80E07ADC112379F3BDCF62
:1038C000CC2099F0B11004C0812F0E944212E6CFA3
:1038D00081E0B812E3CF8091D403912F9823191778
:1038E000E9F2182B1093D403D9CFB110D7CF812F81
:1038F0000E943D129091D403812F892329F0812FBA
:10390000809589238093D4038091A703912F9823D6
:1039100029F2109518231093A703C0CFCC2029F0CB
:1039200095E09B1508F4BACFCFCFE4E0EB1508F48F
:10393000B5CF812F0E943D12B1CFBB20D1F3F9E367
:10394000AF122BC12FEF37EE83E021503040804083
:10395000E1F700C0000021C18C2F86958695837009
:1039600069F0813009F09ACF8D2F9C2F9370C11090
:1039700002C080E090E00E94F30490CF8D2F9C2F36
:103980009370C11002C080E090E00E941A0586CFBB
:103990006C2D8D2F36DB82CF8C2F837009F03FC0CA
:1039A000C1107CCF4D2F429546954770440F440F70
:1039B0002D2F2F7030E0042E02C0220F331F0A94E7
:1039C000E2F790E080E0D4FF09C08FE090E002C011
:1039D000880F991F4A95E2F780959095C695C695F0
:1039E000C370C23099F078F440910E0450910F04E6
:1039F000C13039F0822B932B842395230E947D10B4
:103A00004DCF242B352B822B932BF8CF822B932B4E
:103A100020910E0430910F0482279327EFCF8695D3
:103A2000CC2011F08C2F8170882309F437CF4D2FD3
:103A3000429546954770440F440F2D2F2F7030E06C
:103A4000042E02C0220F331F0A94E2F790E080E0B8
:103A5000D4FF09C08FE090E002C0880F991F4A95FB
:103A6000E2F780959095C695C695C370C23099F0DF
:103A700078F44091100450911104C13039F0822B38
:103A8000932B842395230E94441008CF242B352B9D
:103A9000822B932BF8CF822B932B20911004309103
:103AA000110482279327EFCFCF70CC2029F08C2FE1
:103AB0000E946F108D2F09CF8D2F0E943D128C2FE9
:103AC0000E944910EBCE8D2F92EFA91699F19A150D
:103AD00070F0E0EFAE16D1F0F1EFAF1691F0CC2020
:103AE00009F456C0B11098CE8C2F8F7127C023EFE8
:103AF000A21639F134EFA312F2CF9091DE0492FDB9
:103B00002EC08C2F8F71CC20D9F218C0CC2069F038
:103B100084E08B1508F4C2CECF7181E090E002C042
:103B2000880F991FCA95E2F7B8CF95E09B1508F466
:103B3000B5CEF2CF8C2F8F71C110C2CF0E946F1003
:103B4000ADCE90E080E0CC2009F49DCFCF7181E034
:103B500090E002C0880F991FCA95E2F794CFCC205D
:103B600061F08C2F8F7192FFE9CFE8E08E9F90017A
:103B7000112423602093D303E1CF81E00E945910E8
:103B8000F1E0FB1508F08ACE82E00E94591086CE43
:103B9000BB2031F0893309F4D5CE8D2F08DB7ECEE2
:103BA0008C2F8F718DCF002309F480CE8091D303A9
:103BB00080FD7CCEF70115828695869586950E94BC
:103BC0006F10C701EBDB8091D303869586958695B0
:103BD0000E9449106BCE8091FE03C631FCE7DF07DF
:103BE000D1F48A7A91E009F490E09093A6038111D0
:103BF000F7CC89E20E94BF040E94E911EECBC631E6
:103C00002CE7D207A1F48091A6038111EBCC89E2C5
:103C10000E949404F1CF8272FE01E052F847EB302B
:103C2000F10508F032CDE95CF14D0C94D52C809172
:103C3000FE038272FE01E054F847ED30F10508F012
:103C400024CDEE5BF14D0C94D52CCF93DF93809176
:103C5000D203807F09F04CC08091D103882309F4FE
:103C600047C0E09132055091F904C091CD03D09145
:103C7000CC036091CE037091CF0347E05E17C1F192
:103C80008E2F90E0E49FF0011124E650FB4F248139
:103C9000222389F1489FF001499FF00D1124DF0193
:103CA000A650BB4F11962C9111972C1324C02C9128
:103CB0002D1321C015962C91159721111CC0129619
:103CC0002D913C91261B370B283C3105A0F48091A7
:103CD000D2038F7080618093D203E050FB4F8081CC
:103CE0008F70806180838CEC93E058DB0E94950F8D
:103CF000DF91CF910895FC013196E770BFCFA4E129
:103D0000B0E0E5E8FEE10C94912C8C0186E0F8012E
:103D1000DE011F9601900D928A95E1F7F8018481EA
:103D2000E5809CECA92E93E0B92E9091D0039111DF
:103D300026C0882309F1EE20E9F0C8010E94821014
:103D4000F82E8823B9F087E0F801D50101900D9293
:103D50008A95E1F78091D003813031F48091CC03D2
:103D60009091CD030E94D10F70DF8F2D6496ECE00F
:103D70000C94AD2CC80112DBFF24F394F6CFD08055
:103D8000C18082809380F090D1032091CE03309146
:103D9000CF03A401421B530BFF2009F4D3C0483CBE
:103DA000510508F08EC0882301F39091CD038091D6
:103DB000D203282F207F09F054C0C91213C090915C
:103DC000CC03D9120FC0E11046C08F708061809380
:103DD000D2038CEC93E0E2DA8091D203F80186837F
:103DE000F12CC3CFE11037C06C2D8D2D0E940D0337
:103DF0006C2D8D2D0E940D03E82E8111F1CFDF86F1
:103E0000C88A8F8598890E94D10F292F22952F70FB
:103E1000243058F49F70223080F0992391F0F801FB
:103E20009681907F71F4FE2CA0CF2A5F2F702230F4
:103E300060F0C801B3DAEF2CF6CF992311F0882394
:103E400091F3805E883078F3F4CF803F60F3815F38
:103E5000833078F7E8CF8091D20381608093D203DA
:103E6000BFCFC91207C09091CC03D91203C0EE2076
:103E700009F489C0C8010E948210882309F47ACF0E
:103E8000EE2009F477CF8091D203803280F0209128
:103E9000CC033091CD03398728879B868A86909101
:103EA000D0039C871D868E87CE01089677DA87E03F
:103EB000F801ACECB3E001900D928A95E1F7C5DE14
:103EC0005BCF9091D203292F207F49F48CEC93E0B3
:103ED00065DA87E0F50111928A95E9F781CF8823A9
:103EE00009F443CF8091CD038C110FC08091CC0396
:103EF000D8120BC0E11009C09683C8014FDA87E0E1
:103F0000F50111928A95E9F730CFC8010E9482101D
:103F1000882309F42FCFEE2009F42CCF8091D2030F
:103F2000803228F22091CC033091CD033A8329834B
:103F30009C828B829091D0039D831E828F83CE01C1
:103F40000196B4CF483C5105D0F6882309F414CF2C
:103F5000FE2CEE2009F40ECF8091CD038C111FC0F2
:103F60008091CC03D8121BC08091D20380FD0EC07B
:103F7000982F907F59F08683903F31F0982F907F53
:103F8000905F8F70892B8683C80108DA87E0F8017B
:103F9000ACECB3E001900D928A95E1F7E6CEC80152
:103FA0000E948210811183CF8091D203816080931F
:103FB000D203C801F3D9D9CEABE1B0E0E2EEFFE124
:103FC0000C949A2C4E8B5F8B688F798F8A8F9B8F86
:103FD00091111092D5031D8A86E0FE017696DE01CE
:103FE0001F9601900D928A95E1F78B89882351F0F5
:103FF00061E0CE010F960E94A41061E0CE010F9601
:104000000E94A41087E0FE013F96DE011896019001
:104010000D928A95E1F7CE01089671DE81112AC0D2
:1040200087E0FE013896DE01119601900D928A9587
:10403000E1F78C858823F1F02091F90430E0C90183
:104040000196877099274091320548171906E9F0C3
:1040500097E0929FD001939FB00D1124A650BB4FC3
:10406000FE01319601900D929A95E1F78093F90443
:104070000E94950F17E0809132059091F904891301
:1040800012C06B96E3E00C94B62C0E94C014109200
:10409000F9041092320587E0ECECF3E0DF011D92A9
:1040A0008A95E9F7E7CF819FC001112486509B4F85
:1040B00026DE882331F38091320590E001968770E7
:1040C000992780933205D7CFA5E0B0E0EAE6F0E289
:1040D0000C948B2C782E80911701871124C090911D
:1040E000640593702091160130E081E09217130669
:1040F00009F480E0817080931E01809169059091A0
:104100001D01981739F080931D0140E060E080E0C8
:104110000E94A1072BE2271560F0E72DF0E0E15B9C
:10412000F14D0C94D52C81E0E5CF80911E018111D9
:1041300002C080E007C140E060E080E00E94A1078B
:10414000F8CF80911C010E9417068983192F609176
:10415000650570916605809167050E94F009062F3C
:10416000F72EE82E5981452F50E05D834C839C81CA
:10417000911728F081E0163408F4E4C0DACFEC811E
:10418000FD81E75BFD4F808190911D01892339F00E
:104190002E2D4F2D602F8C819D810E94A4078C8134
:1041A0009D8101969D838C83E2CF80911C010E94AA
:1041B00017068983192FF090660500916705A09175
:1041C0006505AA836A2F7F2D802F0E94F009E62EB5
:1041D000D72EC82E60916805BA816B0F7F2D802F76
:1041E0000E94F009062FF72EB82EF981EF2FF0E08C
:1041F000FD83EC833C81311708F0BCCFEC81FD815D
:10420000E75BFD4F908180911D01892361F02B2D8B
:104210004F2D602F90FD03C02C2D4D2D6E2D8C81C8
:104220009D810E94A4072C813D812F5F3F4F3D83DC
:104230002C83E0CF80911C010E9417068983192FDF
:10424000F0906605E09067056091680580E40E9443
:104250009508082F5981452F50E05D834C839C8140
:10426000911708F087CFEC81FD81E75BFD4F8081DE
:1042700090911D018923C1F0EC81FD81EE0FFF1F9C
:10428000E254FE4F808182958F7060916505809F1A
:10429000600D11247F2D8E2D0E94F009472F282FAD
:1042A0008C819D810E94A4078C819D8101969D83B4
:1042B0008C83D5CF80911C010E9417068983192F0A
:1042C000F0906605E09067056091680580E40E94C3
:1042D0009508082FB981AB2FB0E0BD83AC83FC817A
:1042E000F11708F047CFEC81FD81E75BFD4F80813E
:1042F00090911D018923E1F0EC81FD81EE0FFF1FFC
:10430000E354FE4F6081069FB001112455E075957E
:1043100067955A95E1F780916505680F7F2D8E2D81
:104320000E94F009472F282F8C819D810E94A407AD
:10433000EC81FD813196FD83EC83D1CF8BED99E04B
:104340000E94D50B90911C019F5F90931C018111DD
:104350000CC082E080931F0180911E01811105C075
:10436000711003C083E080931F012596E2E10C9455
:10437000A72C89EA99E0E4CF88E799E0E1CF8CE5C2
:1043800099E00E94BD0CDECF81E499E0FACF87E28C
:1043900099E00E945D0CD6CF8EE099E0FACF8FE9CC
:1043A00097E0CECF86E997E0CBCF8DE897E0C8CFF6
:1043B00084E797E0C5CF86E697E0EBCF81E698E00B
:1043C000E0CF8DEE97E0DDCF8AED97E0E2CF89E395
:1043D00097E00E94140CB6CF8BE097E0FACF84ED03
:1043E00096E0F7CF80911C0181111CC06091680597
:1043F00020E1620F08F46FEF80913305909134054E
:104400000E9488086AE070E00E94772C892B51F4A2
:104410000E941C0826E4829FC00111249093100181
:104420001092110180911C010E9417069A838983C2
:1044300090911E01911121C0209110013091110124
:104440008217130609F0E8F48A8182171306C9F06F
:10445000C0F060911D01822F0E947A0A87E490E0EB
:1044600090931101809310010CC060911D0189810E
:104470000E947A0A39813F5F39834A8159815417F2
:10448000A0F381E09A81963408F45CCF52CE8091FB
:104490001C0181111CC06091680520E1620F08F4C5
:1044A0006FEF80913305909134050E94880865E094
:1044B00070E00E94772C892B51F40E941C08A6E41E
:1044C0008A9FC001112490931201109213018091D0
:1044D0001C010E9417069A83898390911E019111F5
:1044E00021C020911201309113018217130609F0A7
:1044F000E8F44A8142171306C9F0C0F060911D012B
:10450000822F0E94070D87E490E09093130180931F
:1045100012010CC060911D0189810E94070DB981B3
:10452000BF5FB983EA81F981FE17A0F381E05A8168
:10453000563408F407CFFDCD87EF98E001CF86ED24
:1045400098E0FECE8CEB98E0FBCE80911C018111AF
:1045500025C080912804909129049D838C830E941A
:1045600083144091680520E431E0241B3109AC81BB
:10457000BD818A1B9B0B2817390780F40E941C08F9
:10458000B6E48B9FC0011124909314011092150181
:104590000E948314909329048093280480911C0125
:1045A0000E941706192FE0911401F0911501FD8367
:1045B000EC838E171F0611F008F0DCCD9E171F0646
:1045C00009F008F4D7CDE75BFD4F808190911D0184
:1045D000892309F4CFCD0E941C0881FD1DC00E94D3
:1045E0001C08082F0E941C08F0E88F9FC0011124AE
:1045F0007FE7790F80916705602F0E94F009472FB0
:10460000282F8C819D810E94A40787E490E09093DD
:10461000150180931401AECD80E070E000E0ECCF96
:1046200080911E01882329F040E060E080E00E9434
:10463000A10780911C010E9417069B8340913305BE
:1046400050913405609135057091360580914D0487
:1046500090914E04A0914F04B09150048417950797
:10466000A607B70708F0B4C06091650570916605AC
:10467000809167050E94F009362E7A83282E0AE27F
:1046800014E027E731E03D832C83AC80BD805EE001
:10469000A50EB11C8C809D80650178011982D7011F
:1046A0008D917D01412C512C612C882319F0422CD5
:1046B0005A80632CF40181914F0190E0FC01E75B8B
:1046C000FD4F208130911D01232329F0242D452DFC
:1046D000662D0E94A407D6018E916D0190E0FC0129
:1046E000E75BFD4F208130911D01232329F0242D0C
:1046F000452D662D0E94A407F701808131978083A4
:10470000F981FF5FF983F63051F6D80116968C9146
:10471000D12CE12CF12C882319F0D22CEA80F32C37
:10472000EC81FD81868190E0FC01E75BFD4F2081FB
:1047300030911D01232329F02D2D4E2D6F2D0E9428
:10474000A407AC81BD8117968C9190E0FC01E75BDA
:10475000FD4F208130911D01232329F02D2D4E2D59
:104760006F2D0E94A4070E941C08837091E009F03D
:1047700090E0F8019683095F1F4FBD82AC829501DE
:104780002D5B314009F081CF2091680530E1230F86
:1047900008F42FEF60E1822F90E00E948808BC01AE
:1047A00088EB9BE00E94772C809133059091340533
:1047B000A0913505B0913605860F971FA11DB11D3B
:1047C00080934D0490934E04A0934F04B0935004F3
:1047D00081E09B8158CE80911C010E941706882E93
:1047E000B92E80911E01882361F040E060E080E0F6
:1047F0000E94A107E6E5F4E086E4DF011D928A95B8
:10480000E9F780911C0181111BC0E0915204F091E5
:104810005304FD83EC830E9483142C813D81821B11
:10482000930B21E08931910508F420E02093510495
:10483000499730F00E94831490935304809352045C
:10484000D12CC12C00E09EE0992E25E5622E3AEA9B
:10485000A32E5524539405C0EDE0EC1508F456C082
:1048600000E0202F30E09D9CA0011124FA01E958BE
:10487000FE4FE20FF31FE080E81408F43FC0EB1492
:1048800008F03CC0C394F12CF701E75BFD4F808139
:1048900090911D01892309F431C04A5A5B4F420FA0
:1048A000531F5D834C83DA011C91212F362D231B6E
:1048B00008F420E0422E309066052A2D210F08F4DE
:1048C0002FEF822F880F820F609167058E5F0E9405
:1048D00095086A2D6419732D0E94F009472F282F1F
:1048E000C7010E94A40780915104882339F0452D07
:1048F000141B08F410E0AC81BD811C930F5F0E30D7
:1049000009F0AFCFD394B5E0DB12A6CF81E0F5E498
:10491000FB1508F017CD0DCC9090670543E0949EF1
:104920009001112436952795369527953D832C8344
:104930005C80C92CD12C8FEF90E0B6010E94C22C74
:10494000862E80911E01882371F040E060E080E0B7
:104950000E94A107E6E5F4E086E4DF011D928A9556
:10496000E9F710925504809154048F5F80935404AA
:1049700010E000E0EC81FD81CE1ADF0A7801612CA5
:10498000D801AA5ABB4F5D0180915504862909F0D0
:1049900044C00E94222D853595400CF03EC0D501C3
:1049A0009C92F701E958FE4FE081EF3FD9F0D70123
:1049B000AA5ABB4F2C91F0E0521608F03FC030E0ED
:1049C0004C815D81241B350B249FC001259F900DD8
:1049D000349F900D1124B6018AD7262F492DCF017F
:1049E0000E94A40763945EE0E50EF11C85E0681266
:1049F000CBCF0F5F1F4F0E30110509F0BFCF809155
:104A00005404881202C010925404809155048F5FA0
:104A10008D31F0F4809355048CCBF701EA5AFB4FAB
:104A20008081882309F4BDCF891508F0BACF909111
:104A300054048912B6CF81508083B3CF929EC001B7
:104A400011246C817D8153D7462F20E060E0C7CFD1
:104A50001092550420E834E084E044E654E09FEFEF
:104A6000990DA6E5B4E0F901843041F4D8966C9133
:104A7000D897961203C0D8969C93D89760816915F1
:104A800010F090839686119631964A175B0761F76E
:104A900081502E5031098111E4CF4BCB8FEA98E041
:104AA0000E94700B4FCC8DE998E0FACF80913705CA
:104AB00021E0382F321B08F430E0832F6BEB76E0D7
:104AC0000E94B50A3FCC6BEB76E080E0F9CF809195
:104AD000370521E0482F421B08F440E0842F60E8AE
:104AE00076E0EECF60E876E0F0CF8091370521E008
:104AF000582F521B08F450E0852F6EE476E0E0CF8B
:104B00006EE476E0E2CF8091370521E0382F321B4A
:104B100008F430E0832F66E376E0D2CF66E376E0F8
:104B2000D4CF8091370521E0482F421B08F440E0A4
:104B3000842F60E276E0C4CF60E276E0C6CF4F9289
:104B40005F926F927F928F929F92AF92BF92CF921D
:104B5000DF92EF92FF92CF93C090C504D090C6042D
:104B6000E090C704F090C8040E9485042B013C012A
:104B70005C014B018C189D08AE08BF080E9485049B
:104B80006093C5047093C6048093C7049093C804CF
:104B9000A0919C04ECE9F4E02A2F30E04FEFC40E22
:104BA000D41EE11CF11CC418D508E608F708A313AD
:104BB0002AC020939C042091C904C0E0211108C0A0
:104BC00020916405C22FC37019F0C22FC695C695F7
:104BD00020911F01213009F440C0222339F12230F5
:104BE00009F454C0233009F45CC0CF91FF90EF90DA
:104BF000DF90CF90BF90AF909F908F907F906F90FD
:104C00005F904F900895418D528D2A01712C612C37
:104C1000C414D504E604F70420F421503F5F329613
:104C2000C6CF480D591D528F418FF8CF10921C01ED
:104C30006093330570933405809335059093360562
:104C400089E2ECE9F4E0A7E3B5E001900D928A95E2
:104C5000E1F781E080931F01C8CF8C2F35DACC2398
:104C600021F280911F01823059F40E94410581FF99
:104C700007C02FEF4FEF6FEF8CE190E00E94A40789
:104C800080911C0181500E941706AFCFC09317017D
:104C9000809164058370809316010E946C1183E0FB
:104CA000D9CF80916305882349F048E050E067E15F
:104CB00070E084E695E010D710926305C09033054C
:104CC000D0903405E0903505F09036050E948504BB
:104CD0006C197D098E099F09603171058105910567
:104CE00008F483CF10921F0180CF4F925F927F9282
:104CF0008F929F92AF92BF92CF92DF92EF92FF92EC
:104D00000F931F93CF93DF93CDB7DEB72A970FB6DC
:104D1000F894DEBF0FBECDBF8E010F5F1F4F8AE03C
:104D2000F80111928A95E9F72CE5E22E21E0F22EA6
:104D30003AE6832E31E0932ECC24C394D12CAA24BE
:104D4000A394B12CF70181917F018F3F09F44FC0EB
:104D5000F894E82FE295EF70F0E021A18F70A501A3
:104D600002C0440F551F8A95E2F7CA01922F982B73
:104D700091A392A18095892382A3789400C09AE69A
:104D8000492E91E0592ED801B60160957095F20137
:104D900071902F018D919D91AD0142505109FFEF0E
:104DA0007F1609F45BC0272D22952F7030E0F901A2
:104DB00020A130E0F72DFF7002C035952795FA95B8
:104DC000E2F720FD4BC08C299D29FA019183808355
:104DD000FFE64F16F1E05F06D1F6F70131978081CB
:104DE0008F3F11F00E94290D20EA2A95F1F7CC0C93
:104DF000DD1C8E149F0409F0A5CF4AE050E0B801F5
:104E000084E094E036D6892B71F18AE0F801A4E0C1
:104E1000B4E001900D928A95E1F781E0809303045C
:104E20000E948314909302048093010410E0812F68
:104E30002A960FB6F894DEBF0FBECDBFDF91CF919B
:104E40001F910F91FF90EF90DF90CF90BF90AF90A8
:104E50009F908F907F905F904F9008958623972327
:104E6000B4CF10E020C0109103041123F9F2E090B8
:104E70000104F09002040E9483148E199F09039785
:104E8000A8F24AE050E064E074E082E194E0F1D5F9
:104E9000892B39F38AE0E4E0F4E0A2E1B4E0019088
:104EA0000D928A95E1F710920304C1CFA6E0B0E01D
:104EB000EBE5F7E23EC50E9483148C018091FF036D
:104EC000909100048017910779F019821A820E944C
:104ED0008314682F49815A81792F80E090E06CD843
:104EE000109300040093FF032696E4E03EC51F9252
:104EF0001FB61F9211248F939F93AF93BF938091FE
:104F0000DF04811113C08091E0049091E104A0912D
:104F1000E204B091E3044196A11DB11D8093E00429
:104F20009093E104A093E204B093E304BF91AF91A6
:104F30009F918F911F901FBE1F901895CDB7DEB720
:104F400069970FB6F894DEBF0FBECDBF85B78068F6
:104F500085BF85B7806885BF84B7877F84BF0FB65C
:104F6000F894A89580916000886180936000109209
:104F700060000FBE80E890E00FB6F8948093610067
:104F8000909361000FBE81E080931B0187E29DE05A
:104F900090939102809390020E942C030E94CD0373
:104FA0008091E20084608093E20078948091EF0425
:104FB0008823A1F01091E9001F709091EC00892FD7
:104FC000817090FD80E8182B1092E9008091E80034
:104FD00083FD0E94EE141F701093E90082E084BDEF
:104FE00093E095BD9AEF97BD80936E000CE511E0BC
:104FF000D8018D918D018F3F11F00E94290DB1E0F4
:105000000A361B07A9F70AE611E0F80181918F0122
:105010008F3F11F00E94290DF1E00F361F07A9F70D
:105020008AE0E2E1F4E0DF01282F1D922A95E9F7FA
:10503000E4E0F4E0DF011D928A95E9F790E080E07A
:1050400046D5833E9E4F79F163EE7EEF90E080E09F
:105050006CD560E082E090E04ED581E090E09093E6
:105060000F0480930E0461E083E090E044D560E09B
:1050700074E184E090E059D50E94B81140E050E01E
:10508000BA018FE090E049D540E050E0BA0183E1F9
:1050900090E043D548E050E067E170E084E695E0B9
:1050A0001BD51092630582E090E009D580931C0423
:1050B00084E090E00CD59093DE048093DD0415DE4F
:1050C000EFEBFDE53197F1F700C000000EDE8091B7
:1050D000120480FF07C06FEF7FEF90E080E025D5DE
:1050E0000E94481183E090E0EAD490E00E947D1095
:1050F0000E944B12109237058FEF9FEF909351054E
:1051000080935005909353058093520590935505D5
:1051100080935405909357058093560590935905B5
:105120008093580590935B0580935A0590935D0595
:1051300080935C0590935F0580935E0510929C04BC
:105140009093B6048093B5049093B8048093B70409
:105150009093BA048093B9049093BC048093BB04E9
:105160009093BE048093BD049093C0048093BF04C9
:105170009093C2048093C1049093C4048093C304A9
:1051800081E08093630548E050E067E170E084E6E9
:1051900095E085D410926305809164058C7F11F4AD
:1051A0000E94B81184E091E09093DA048093D904CE
:1051B0008091EF04853089F411E000E483E0F82E5B
:1051C00092E1E92E8091EF04853009F4A8C00E9495
:1051D000C0140E9441051092C90487DD8DE194E05E
:1051E000988B8F87A2E1B4E0BA8BA98BFC01219147
:1051F00031918D919D9144E0E732F40709F4D8C0D4
:1052000028173907A1F3712C612CF12CA989BA89CF
:105210002D903D90BA8BA98BEF85F8898191919162
:10522000F88BEF878215930509F420C26301E12C06
:1052300044244394512C9C01222533253D8B2C8BF7
:105240008C899D8984219521892B09F401C2410112
:1052500084209520EF82F8860E9483149A8789879C
:1052600031E03B8791E08114910409F490E09C8740
:105270004F81588569857A858B850E94DC1F811452
:10528000910439F0F601E958FE4F80818F3F09F013
:1052900078C11D865D85052F10E080919C04800FEC
:1052A000912F911D099754F1F8E0AF2EB12CA01A5F
:1052B000B10AB80163567B4FA5018DE994E0E6D3AE
:1052C000B8016B557B4FA50185EA94E0DFD3A501BA
:1052D000440F551FB801660F771F6B547B4F85EB4A
:1052E00094E0D4D3B80163557B4FA5018DEA94E0D7
:1052F000CDD388E09D85891B80939C0480919C047C
:1053000090E0EB89AE2FB0E09D01220F331F2354B4
:105310003E4FAA0FBB1FBD0162547E4F4BC180910F
:10532000EF04843009F437C00ADC8091C90481118C
:105330000DC00E9464201092170180916405837053
:10534000809316010E946C11F0921F011093C90402
:105350001092DF0428E130E00FB6F894A89520936E
:1053600060000FBE0093600083B7817F846083BFBD
:1053700083B7816083BF7894889583B78E7F83BF1E
:105380000FB6F894A89580916000886180936000C2
:10539000109260000FBEA9DCE2E1F4E081919191EE
:1053A000892B09F0B0C134E0EC31F307B9F70ACF2B
:1053B0002817390709F027CF79DDC1DB86E0E1ED59
:1053C000F4E0DE01119601900D928A95E1F7B0901C
:1053D000D204F090D304E090D404C090D504D090CF
:1053E000D6041092D3041092D4041092D5041092D3
:1053F000D6048F2D8E2909F447C00091CF04109157
:10540000D0040E9483149C01201B310B9091CA048C
:10541000992309F49EC125313105B0F19F3F19F060
:105420009F5F9093CA04FF2059F00E9472059FEF7E
:105430001F140CF491E0899F802D11248093D304D4
:10544000EE2059F00E94720591E01E140CF09FEFBF
:10545000899F802D11248093D4048091D3048823C4
:1054600099F01091D404112379F00E9492058823B9
:1054700009F441C18093D304812F0E9492058823AF
:1054800009F43BC18093D4048D2D8C2909F447C0C5
:105490000091CD041091CE040E9483149C01201B26
:1054A000310B9091CB04992309F44EC1213531057C
:1054B000B0F19F3F19F09F5F9093CB04CC2059F03F
:1054C0000E9450059FEF1C140CF491E0899F802DE1
:1054D00011248093D504DD2059F00E94500591E0FD
:1054E0001D140CF09FEF899F802D11248093D6040A
:1054F0008091D504882399F01091D604112379F076
:105500000E949205882309F4FAC08093D504812F64
:105510000E949205882309F4F4C08093D6048091F8
:10552000D204B81217C08091D304882311F0F81266
:1055300011C02091D404222311F0E2120BC09091EB
:10554000D604992311F0D91205C03091D504332324
:1055500009F4F5C00E94981486E0FE013196A1ED91
:10556000B4E001900D928A95E1F70E944105909177
:105570002704891709F41CCE809327040E94850410
:1055800017CE8B8B41E04D8785CE90E0FC01E45631
:10559000FB4FD9015C915183DB015C915187BB8941
:1055A000B18B880F991FFC01E456FB4F128E118EB0
:1055B00091E0842F41E0480FFD859F1730F38093E1
:1055C0009C04892809F444C0809164058C7F883745
:1055D00009F03EC0F601E958FE4F80818F3FC1F1CE
:1055E000B12CA12C812C90E09C01220F331FA9012A
:1055F00043545E4F5F8B4E8BD901A254BE4FB98F7F
:10560000A88FF601EA5AFB4FFE87ED878501912CA2
:10561000F801E958FE4F80818F3F61F08F1030C054
:105620009E102EC0AD85BE852C9130E2230F08F46C
:105630002FEF2C9393940F5F1F4F4EE09412E8CFFF
:1056400083945EE0A50EB11C86E4A816B104F1F6C1
:10565000E394440C551C9FEFC91AD90AAEE0EA1234
:10566000EFCDEF85F889329731822082F394BEE046
:105670006B0E711CE5E0FE12C9CD0E9485049DCE23
:1056800090E0AE89BF894C91FC01EE0FFF1FE354FF
:10569000FE4F2081421B550BE88DF98D2081880F2C
:1056A000991FFC01E254FE4F8081281B330B449F5D
:1056B000B001459F700D700D1124229FC001239FE2
:1056C000900D900D1124860F971F0E94310889328A
:1056D00008F0B0CF28E2382F231B08F420E0F801AF
:1056E000EA5AFB4F213108F020E13081320F08F4F3
:1056F0003FEF30839FCF81E0BDCE81E0C3CE81E01C
:1057000004CF81E00ACF8091EE04882309F45ACDBA
:1057100040E149BDE9BC09B400FEFDCF8091D8004D
:105720008F7D8093D8008091E00082608093E000BC
:105730008091E00081FDFCCF0E94C01443CD822BFC
:10574000892B09F409CF06CF2B30310508F0B3CEF1
:10575000E6CE2B30310508F063CE96CEEF92FF9265
:105760000F931F93CF93DF93182FEB011092BC0080
:1057700084EA8093BC000E9483147C018091BC0069
:1057800087FF27C08091B900887F883029F08091F9
:10579000B900887F803181F51093BB0084E8809345
:1057A000BC000E9483148C018091BC0087FF1DC047
:1057B0002091B900287F90E080E0283191F081E0CD
:1057C00090E0203411F490E080E09195819591096A
:1057D00008C0C7010E948F14C817D90778F68EEF4A
:1057E0009FEFCDB7DEB7E6E0BEC0C8010E948F14C0
:1057F000C817D907C8F6F3CF8FEF9FEFF2CF1092FB
:10580000B9008CE08093B80008950F931F93CF9355
:10581000DF93EB018093BB0084E88093BC000E947F
:1058200083148C018091BC0087FF11C02091B900C6
:10583000287F81E090E0283211F490E080E091959B
:1058400081959109DF91CF911F910F910895CF3FDD
:10585000DC0741F3C8010E948F14C817D90710F75D
:105860008EEF9FEFEFCFB0E0A0E0E8E3FCE257C09F
:10587000682E762E5A0169010E9483144C01C1E002
:10588000D0E00431110550F0C5E0D0E00F3F100723
:1058900029F0C80164E170E02AD0EB01BE01862D39
:1058A0005DDF7C0197FF1BC00F3F1007B9F3C401F8
:1058B0000E948F140817190788F784E98093BC00A9
:1058C000C701CDB7DEB7EEE046C0B80189919DDFD4
:1058D0007C01CC16DD0689F3F7FEF7CFEECFB801D9
:1058E000872D93DF7C01E501CA0CDB1CF2CFAA1BDC
:1058F000BB1B51E107C0AA1FBB1FA617B70710F0BB
:10590000A61BB70B881F991F5A95A9F780959095EC
:10591000BC01CD0108952F923F924F925F926F92FA
:105920007F928F929F92AF92BF92CF92DF92EF922F
:10593000FF920F931F93CF93DF93CDB7DEB7CA1BB0
:10594000DB0B0FB6F894DEBF0FBECDBF09942A88DB
:10595000398848885F846E847D848C849B84AA8483
:10596000B984C884DF80EE80FD800C811B81AA8110
:10597000B981CE0FD11D0FB6F894DEBF0FBECDBFDB
:10598000ED01089597FB072E16F4009406D077FDDD
:1059900008D0ADDF07FC05D03EF4909581959F4F70
:1059A0000895709561957F4F0895EE0FFF1F059044
:1059B000F491E02D09948F929F92AF92BF92CF9273
:1059C000DF92EF92FF92CF93DF93EC0168817981B0
:1059D0008A819B81611571058105910521F464E23D
:1059E00079ED8BE597E02DE133EF41E050E0A1D078
:1059F00049015A019B01AC01A7EAB1E4B6D06B01A1
:105A00007C01ACEEB4EFA5019401BBD0DC01CB016D
:105A10008C0D9D1DAE1DBF1DB7FF03C00197A109D1
:105A2000B04888839983AA83BB839F77DF91CF9106
:105A3000FF90EF90DF90CF90BF90AF909F908F90AE
:105A40000895B9CF80E091E0B6CFB0E0A0E08093B8
:105A5000000190930101A0930201B0930301089506
:105A6000FB01DC0102C005900D9241505040D8F777
:105A70000895FB01DC0104C08D910190801921F48F
:105A800041505040C8F7881B990B0895FB01DC0179
:105A900002C001900D9241505040D8F70895DC01AA
:105AA000CB01FC01F999FECF06C0F2BDE1BDF89A29
:105AB000319600B40D9241505040B8F70895F999CD
:105AC000FECF92BD81BDF89A992780B50895A8E1CF
:105AD000B0E042E050E0E5CFDC01A40FB51F41503B
